{
  "_format": "hh-sol-artifact-1",
  "contractName": "Voting",
  "sourceName": "contracts/Voting.sol",
  "abi": [
    {
      "anonymous": false,
      "inputs": [
        {
          "indexed": true,
          "internalType": "uint256",
          "name": "pollId",
          "type": "uint256"
        },
        {
          "indexed": false,
          "internalType": "string",
          "name": "title",
          "type": "string"
        },
        {
          "indexed": true,
          "internalType": "address",
          "name": "creator",
          "type": "address"
        },
        {
          "indexed": false,
          "internalType": "uint256",
          "name": "startTime",
          "type": "uint256"
        },
        {
          "indexed": false,
          "internalType": "uint256",
          "name": "endTime",
          "type": "uint256"
        }
      ],
      "name": "PollCreated",
      "type": "event"
    },
    {
      "anonymous": false,
      "inputs": [
        {
          "indexed": true,
          "internalType": "uint256",
          "name": "pollId",
          "type": "uint256"
        }
      ],
      "name": "PollEnded",
      "type": "event"
    },
    {
      "anonymous": false,
      "inputs": [
        {
          "indexed": true,
          "internalType": "uint256",
          "name": "pollId",
          "type": "uint256"
        },
        {
          "indexed": true,
          "internalType": "address",
          "name": "voter",
          "type": "address"
        },
        {
          "indexed": false,
          "internalType": "uint256",
          "name": "optionIndex",
          "type": "uint256"
        }
      ],
      "name": "Voted",
      "type": "event"
    },
    {
      "inputs": [
        {
          "internalType": "string",
          "name": "_title",
          "type": "string"
        },
        {
          "internalType": "string",
          "name": "_description",
          "type": "string"
        },
        {
          "internalType": "string[]",
          "name": "_options",
          "type": "string[]"
        },
        {
          "internalType": "uint256",
          "name": "_duration",
          "type": "uint256"
        }
      ],
      "name": "createPoll",
      "outputs": [],
      "stateMutability": "nonpayable",
      "type": "function"
    },
    {
      "inputs": [
        {
          "internalType": "uint256",
          "name": "_pollId",
          "type": "uint256"
        }
      ],
      "name": "endPoll",
      "outputs": [],
      "stateMutability": "nonpayable",
      "type": "function"
    },
    {
      "inputs": [],
      "name": "getActivePolls",
      "outputs": [
        {
          "internalType": "uint256[]",
          "name": "",
          "type": "uint256[]"
        }
      ],
      "stateMutability": "view",
      "type": "function"
    },
    {
      "inputs": [
        {
          "internalType": "uint256",
          "name": "_pollId",
          "type": "uint256"
        }
      ],
      "name": "getOptionCount",
      "outputs": [
        {
          "internalType": "uint256",
          "name": "",
          "type": "uint256"
        }
      ],
      "stateMutability": "view",
      "type": "function"
    },
    {
      "inputs": [
        {
          "internalType": "uint256",
          "name": "_pollId",
          "type": "uint256"
        }
      ],
      "name": "getPoll",
      "outputs": [
        {
          "internalType": "uint256",
          "name": "id",
          "type": "uint256"
        },
        {
          "internalType": "string",
          "name": "title",
          "type": "string"
        },
        {
          "internalType": "string",
          "name": "description",
          "type": "string"
        },
        {
          "internalType": "address",
          "name": "creator",
          "type": "address"
        },
        {
          "internalType": "uint256",
          "name": "startTime",
          "type": "uint256"
        },
        {
          "internalType": "uint256",
          "name": "endTime",
          "type": "uint256"
        },
        {
          "internalType": "bool",
          "name": "isActive",
          "type": "bool"
        },
        {
          "internalType": "uint256",
          "name": "totalVotes",
          "type": "uint256"
        }
      ],
      "stateMutability": "view",
      "type": "function"
    },
    {
      "inputs": [
        {
          "internalType": "uint256",
          "name": "_pollId",
          "type": "uint256"
        }
      ],
      "name": "getPollOptions",
      "outputs": [
        {
          "internalType": "string[]",
          "name": "names",
          "type": "string[]"
        },
        {
          "internalType": "uint256[]",
          "name": "voteCounts",
          "type": "uint256[]"
        }
      ],
      "stateMutability": "view",
      "type": "function"
    },
    {
      "inputs": [
        {
          "internalType": "uint256",
          "name": "_pollId",
          "type": "uint256"
        },
        {
          "internalType": "address",
          "name": "_voter",
          "type": "address"
        }
      ],
      "name": "getVoterChoice",
      "outputs": [
        {
          "internalType": "bool",
          "name": "voted",
          "type": "bool"
        },
        {
          "internalType": "uint256",
          "name": "optionIndex",
          "type": "uint256"
        }
      ],
      "stateMutability": "view",
      "type": "function"
    },
    {
      "inputs": [
        {
          "internalType": "uint256",
          "name": "_pollId",
          "type": "uint256"
        }
      ],
      "name": "getWinner",
      "outputs": [
        {
          "internalType": "string",
          "name": "winnerName",
          "type": "string"
        },
        {
          "internalType": "uint256",
          "name": "winnerVoteCount",
          "type": "uint256"
        },
        {
          "internalType": "uint256",
          "name": "winnerIndex",
          "type": "uint256"
        }
      ],
      "stateMutability": "view",
      "type": "function"
    },
    {
      "inputs": [
        {
          "internalType": "uint256",
          "name": "",
          "type": "uint256"
        },
        {
          "internalType": "address",
          "name": "",
          "type": "address"
        }
      ],
      "name": "hasVoted",
      "outputs": [
        {
          "internalType": "bool",
          "name": "",
          "type": "bool"
        }
      ],
      "stateMutability": "view",
      "type": "function"
    },
    {
      "inputs": [
        {
          "internalType": "uint256",
          "name": "_pollId",
          "type": "uint256"
        }
      ],
      "name": "isPollActive",
      "outputs": [
        {
          "internalType": "bool",
          "name": "",
          "type": "bool"
        }
      ],
      "stateMutability": "view",
      "type": "function"
    },
    {
      "inputs": [],
      "name": "pollCount",
      "outputs": [
        {
          "internalType": "uint256",
          "name": "",
          "type": "uint256"
        }
      ],
      "stateMutability": "view",
      "type": "function"
    },
    {
      "inputs": [
        {
          "internalType": "uint256",
          "name": "",
          "type": "uint256"
        },
        {
          "internalType": "uint256",
          "name": "",
          "type": "uint256"
        }
      ],
      "name": "pollOptions",
      "outputs": [
        {
          "internalType": "string",
          "name": "name",
          "type": "string"
        },
        {
          "internalType": "uint256",
          "name": "voteCount",
          "type": "uint256"
        }
      ],
      "stateMutability": "view",
      "type": "function"
    },
    {
      "inputs": [
        {
          "internalType": "uint256",
          "name": "",
          "type": "uint256"
        }
      ],
      "name": "polls",
      "outputs": [
        {
          "internalType": "uint256",
          "name": "id",
          "type": "uint256"
        },
        {
          "internalType": "string",
          "name": "title",
          "type": "string"
        },
        {
          "internalType": "string",
          "name": "description",
          "type": "string"
        },
        {
          "internalType": "address",
          "name": "creator",
          "type": "address"
        },
        {
          "internalType": "uint256",
          "name": "startTime",
          "type": "uint256"
        },
        {
          "internalType": "uint256",
          "name": "endTime",
          "type": "uint256"
        },
        {
          "internalType": "bool",
          "name": "isActive",
          "type": "bool"
        },
        {
          "internalType": "uint256",
          "name": "totalVotes",
          "type": "uint256"
        }
      ],
      "stateMutability": "view",
      "type": "function"
    },
    {
      "inputs": [
        {
          "internalType": "uint256",
          "name": "_pollId",
          "type": "uint256"
        },
        {
          "internalType": "uint256",
          "name": "_optionIndex",
          "type": "uint256"
        }
      ],
      "name": "vote",
      "outputs": [],
      "stateMutability": "nonpayable",
      "type": "function"
    },
    {
      "inputs": [
        {
          "internalType": "uint256",
          "name": "",
          "type": "uint256"
        },
        {
          "internalType": "address",
          "name": "",
          "type": "address"
        }
      ],
      "name": "voterChoice",
      "outputs": [
        {
          "internalType": "uint256",
          "name": "",
          "type": "uint256"
        }
      ],
      "stateMutability": "view",
      "type": "function"
    }
  ],
  "bytecode": "0x608060405234801561001057600080fd5b50612d1d806100206000396000f3fe608060405234801561001057600080fd5b50600436106100f55760003560e01c80639207891d11610097578063e1adaf5811610066578063e1adaf58146102cf578063f0114ad1146102ff578063f43b877814610330578063f75627651461034c576100f5565b80639207891d14610242578063ac2f007414610260578063ad0f04a914610297578063b384abef146102b3576100f5565b80634129b2c9116100d35780634129b2c91461019257806343859632146101c457806351477141146101f457806363a9492f14610224576100f5565b80630eac27f4146100fa5780631a8cbcaa1461012b5780632ec1548014610162575b600080fd5b610114600480360381019061010f9190611aed565b61037d565b604051610122929190611b57565b60405180910390f35b61014560048036038101906101409190611b80565b61048d565b604051610159989796959493929190611c4c565b60405180910390f35b61017c60048036038101906101779190611b80565b61069b565b6040516101899190611cd8565b60405180910390f35b6101ac60048036038101906101a79190611b80565b61075f565b6040516101bb93929190611cf3565b60405180910390f35b6101de60048036038101906101d99190611aed565b610996565b6040516101eb9190611cd8565b60405180910390f35b61020e60048036038101906102099190611aed565b6109c5565b60405161021b9190611d31565b60405180910390f35b61022c6109ea565b6040516102399190611e0a565b60405180910390f35b61024a610b60565b6040516102579190611d31565b60405180910390f35b61027a60048036038101906102759190611b80565b610b66565b60405161028e989796959493929190611c4c565b60405180910390f35b6102b160048036038101906102ac9190612047565b610ceb565b005b6102cd60048036038101906102c89190612102565b611101565b005b6102e960048036038101906102e49190611b80565b6114ec565b6040516102f69190611d31565b60405180910390f35b61031960048036038101906103149190612102565b61155f565b604051610327929190612142565b60405180910390f35b61034a60048036038101906103459190611b80565b611628565b005b61036660048036038101906103619190611b80565b6117e1565b60405161037492919061227e565b60405180910390f35b6000808360008111801561039357506000548111155b6103d2576040517f08c379a00000000000000000000000000000000000000000000000000000000081526004016103c990612301565b60405180910390fd5b6003600086815260200190815260200160002060008573ffffffffffffffffffffffffffffffffffffffff1673ffffffffffffffffffffffffffffffffffffffff16815260200190815260200160002060009054906101000a900460ff166004600087815260200190815260200160002060008673ffffffffffffffffffffffffffffffffffffffff1673ffffffffffffffffffffffffffffffffffffffff1681526020019081526020016000205492509250509250929050565b60006060806000806000806000886000811180156104ad57506000548111155b6104ec576040517f08c379a00000000000000000000000000000000000000000000000000000000081526004016104e390612301565b60405180910390fd5b6000600160008c81526020019081526020016000209050806000015481600101826002018360030160009054906101000a900473ffffffffffffffffffffffffffffffffffffffff16846004015485600501548660060160009054906101000a900460ff168015610561575086600501544211155b876007015486805461057290612350565b80601f016020809104026020016040519081016040528092919081815260200182805461059e90612350565b80156105eb5780601f106105c0576101008083540402835291602001916105eb565b820191906000526020600020905b8154815290600101906020018083116105ce57829003601f168201915b505050505096508580546105fe90612350565b80601f016020809104026020016040519081016040528092919081815260200182805461062a90612350565b80156106775780601f1061064c57610100808354040283529160200191610677565b820191906000526020600020905b81548152906001019060200180831161065a57829003601f168201915b50505050509550995099509950995099509950995099505050919395975091939597565b6000816000811180156106b057506000548111155b6106ef576040517f08c379a00000000000000000000000000000000000000000000000000000000081526004016106e690612301565b60405180910390fd5b6001600084815260200190815260200160002060060160009054906101000a900460ff168015610735575060016000848152602001908152602001600020600401544210155b8015610757575060016000848152602001908152602001600020600501544211155b915050919050565b60606000808360008111801561077757506000548111155b6107b6576040517f08c379a00000000000000000000000000000000000000000000000000000000081526004016107ad90612301565b60405180910390fd5b600060026000878152602001908152602001600020805490501161080f576040517f08c379a0000000000000000000000000000000000000000000000000000000008152600401610806906123cd565b60405180910390fd5b60008060005b60026000898152602001908152602001600020805490508110156108c15782600260008a81526020019081526020016000208281548110610859576108586123ed565b5b90600052602060002090600202016001015411156108ae57600260008981526020019081526020016000208181548110610896576108956123ed565b5b90600052602060002090600202016001015492508091505b80806108b99061244b565b915050610815565b506002600088815260200190815260200160002081815481106108e7576108e66123ed565b5b9060005260206000209060020201600001828282805461090690612350565b80601f016020809104026020016040519081016040528092919081815260200182805461093290612350565b801561097f5780601f106109545761010080835404028352916020019161097f565b820191906000526020600020905b81548152906001019060200180831161096257829003601f168201915b505050505092509550955095505050509193909250565b60036020528160005260406000206020528060005260406000206000915091509054906101000a900460ff1681565b6004602052816000526040600020602052806000526040600020600091509150505481565b6060600080600190505b6000548111610a6a576001600082815260200190815260200160002060060160009054906101000a900460ff168015610a43575060016000828152602001908152602001600020600501544211155b15610a57578180610a539061244b565b9250505b8080610a629061244b565b9150506109f4565b5060008167ffffffffffffffff811115610a8757610a86611e36565b5b604051908082528060200260200182016040528015610ab55781602001602082028036833780820191505090505b509050600080600190505b6000548111610b56576001600082815260200190815260200160002060060160009054906101000a900460ff168015610b0f575060016000828152602001908152602001600020600501544211155b15610b435780838381518110610b2857610b276123ed565b5b6020026020010181815250508180610b3f9061244b565b9250505b8080610b4e9061244b565b915050610ac0565b5081935050505090565b60005481565b6001602052806000526040600020600091509050806000015490806001018054610b8f90612350565b80601f0160208091040260200160405190810160405280929190818152602001828054610bbb90612350565b8015610c085780601f10610bdd57610100808354040283529160200191610c08565b820191906000526020600020905b815481529060010190602001808311610beb57829003601f168201915b505050505090806002018054610c1d90612350565b80601f0160208091040260200160405190810160405280929190818152602001828054610c4990612350565b8015610c965780601f10610c6b57610100808354040283529160200191610c96565b820191906000526020600020905b815481529060010190602001808311610c7957829003601f168201915b5050505050908060030160009054906101000a900473ffffffffffffffffffffffffffffffffffffffff16908060040154908060050154908060060160009054906101000a900460ff16908060070154905088565b6000845111610d2f576040517f08c379a0000000000000000000000000000000000000000000000000000000008152600401610d26906124df565b60405180910390fd5b600282511015610d74576040517f08c379a0000000000000000000000000000000000000000000000000000000008152600401610d6b9061254b565b60405180910390fd5b600a82511115610db9576040517f08c379a0000000000000000000000000000000000000000000000000000000008152600401610db0906125b7565b60405180910390fd5b603c811015610dfd576040517f08c379a0000000000000000000000000000000000000000000000000000000008152600401610df490612649565b60405180910390fd5b62278d00811115610e43576040517f08c379a0000000000000000000000000000000000000000000000000000000008152600401610e3a906126b5565b60405180910390fd5b600080815480929190610e559061244b565b91905055506000805490506040518061010001604052808281526020018681526020018581526020013373ffffffffffffffffffffffffffffffffffffffff1681526020014281526020018342610eac91906126d5565b8152602001600115158152602001600081525060016000838152602001908152602001600020600082015181600001556020820151816001019081610ef191906128b5565b506040820151816002019081610f0791906128b5565b5060608201518160030160006101000a81548173ffffffffffffffffffffffffffffffffffffffff021916908373ffffffffffffffffffffffffffffffffffffffff1602179055506080820151816004015560a0820151816005015560c08201518160060160006101000a81548160ff02191690831515021790555060e0820151816007015590505060005b835181101561109b576000848281518110610fb157610fb06123ed565b5b60200260200101515111610ffa576040517f08c379a0000000000000000000000000000000000000000000000000000000008152600401610ff1906129d3565b60405180910390fd5b60026000838152602001908152602001600020604051806040016040528086848151811061102b5761102a6123ed565b5b6020026020010151815260200160008152509080600181540180825580915050600190039060005260206000209060020201600090919091909150600082015181600001908161107b91906128b5565b5060208201518160010155505080806110939061244b565b915050610f93565b503373ffffffffffffffffffffffffffffffffffffffff16817fca8cfbb6645913473bbcef27cf3f67a6711384974f848bc9208a5edc45b72f37874286426110e391906126d5565b6040516110f293929190611cf3565b60405180910390a35050505050565b8160008111801561111457506000548111155b611153576040517f08c379a000000000000000000000000000000000000000000000000000000000815260040161114a90612301565b60405180910390fd5b826001600082815260200190815260200160002060060160009054906101000a900460ff166111b7576040517f08c379a00000000000000000000000000000000000000000000000000000000081526004016111ae90612a3f565b60405180910390fd5b6001600082815260200190815260200160002060040154421015611210576040517f08c379a000000000000000000000000000000000000000000000000000000000815260040161120790612aab565b60405180910390fd5b6001600082815260200190815260200160002060050154421115611269576040517f08c379a000000000000000000000000000000000000000000000000000000000815260040161126090612b17565b60405180910390fd5b836003600082815260200190815260200160002060003373ffffffffffffffffffffffffffffffffffffffff1673ffffffffffffffffffffffffffffffffffffffff16815260200190815260200160002060009054906101000a900460ff1615611308576040517f08c379a00000000000000000000000000000000000000000000000000000000081526004016112ff90612b83565b60405180910390fd5b60026000868152602001908152602001600020805490508410611360576040517f08c379a000000000000000000000000000000000000000000000000000000000815260040161135790612bef565b60405180910390fd5b60016003600087815260200190815260200160002060003373ffffffffffffffffffffffffffffffffffffffff1673ffffffffffffffffffffffffffffffffffffffff16815260200190815260200160002060006101000a81548160ff021916908315150217905550836004600087815260200190815260200160002060003373ffffffffffffffffffffffffffffffffffffffff1673ffffffffffffffffffffffffffffffffffffffff16815260200190815260200160002081905550600260008681526020019081526020016000208481548110611443576114426123ed565b5b906000526020600020906002020160010160008154809291906114659061244b565b91905055506001600086815260200190815260200160002060070160008154809291906114919061244b565b91905055503373ffffffffffffffffffffffffffffffffffffffff16857f1abe610cf2bf87e57dcc1181fcf5ac0934e843d8344ab9eed6e86c799f62585e866040516114dd9190611d31565b60405180910390a35050505050565b60008160008111801561150157506000548111155b611540576040517f08c379a000000000000000000000000000000000000000000000000000000000815260040161153790612301565b60405180910390fd5b6002600084815260200190815260200160002080549050915050919050565b6002602052816000526040600020818154811061157b57600080fd5b90600052602060002090600202016000915091505080600001805461159f90612350565b80601f01602080910402602001604051908101604052809291908181526020018280546115cb90612350565b80156116185780601f106115ed57610100808354040283529160200191611618565b820191906000526020600020905b8154815290600101906020018083116115fb57829003601f168201915b5050505050908060010154905082565b8060008111801561163b57506000548111155b61167a576040517f08c379a000000000000000000000000000000000000000000000000000000000815260040161167190612301565b60405180910390fd5b3373ffffffffffffffffffffffffffffffffffffffff166001600084815260200190815260200160002060030160009054906101000a900473ffffffffffffffffffffffffffffffffffffffff1673ffffffffffffffffffffffffffffffffffffffff161461171e576040517f08c379a000000000000000000000000000000000000000000000000000000000815260040161171590612c5b565b60405180910390fd5b6001600083815260200190815260200160002060060160009054906101000a900460ff16611781576040517f08c379a000000000000000000000000000000000000000000000000000000000815260040161177890612cc7565b60405180910390fd5b60006001600084815260200190815260200160002060060160006101000a81548160ff021916908315150217905550817f14d4cfc1c2a6f37c8f97ad80fc12bd9d943ea6d4dd7684137850125597ce9bf760405160405180910390a25050565b606080826000811180156117f757506000548111155b611836576040517f08c379a000000000000000000000000000000000000000000000000000000000815260040161182d90612301565b60405180910390fd5b6000600260008681526020019081526020016000208054905090508067ffffffffffffffff81111561186b5761186a611e36565b5b60405190808252806020026020018201604052801561189e57816020015b60608152602001906001900390816118895790505b5093508067ffffffffffffffff8111156118bb576118ba611e36565b5b6040519080825280602002602001820160405280156118e95781602001602082028036833780820191505090505b50925060005b81811015611a3d5760026000878152602001908152602001600020818154811061191c5761191b6123ed565b5b9060005260206000209060020201600001805461193890612350565b80601f016020809104026020016040519081016040528092919081815260200182805461196490612350565b80156119b15780601f10611986576101008083540402835291602001916119b1565b820191906000526020600020905b81548152906001019060200180831161199457829003601f168201915b50505050508582815181106119c9576119c86123ed565b5b60200260200101819052506002600087815260200190815260200160002081815481106119f9576119f86123ed565b5b906000526020600020906002020160010154848281518110611a1e57611a1d6123ed565b5b6020026020010181815250508080611a359061244b565b9150506118ef565b505050915091565b6000604051905090565b600080fd5b600080fd5b6000819050919050565b611a6c81611a59565b8114611a7757600080fd5b50565b600081359050611a8981611a63565b92915050565b600073ffffffffffffffffffffffffffffffffffffffff82169050919050565b6000611aba82611a8f565b9050919050565b611aca81611aaf565b8114611ad557600080fd5b50565b600081359050611ae781611ac1565b92915050565b60008060408385031215611b0457611b03611a4f565b5b6000611b1285828601611a7a565b9250506020611b2385828601611ad8565b9150509250929050565b60008115159050919050565b611b4281611b2d565b82525050565b611b5181611a59565b82525050565b6000604082019050611b6c6000830185611b39565b611b796020830184611b48565b9392505050565b600060208284031215611b9657611b95611a4f565b5b6000611ba484828501611a7a565b91505092915050565b600081519050919050565b600082825260208201905092915050565b60005b83811015611be7578082015181840152602081019050611bcc565b60008484015250505050565b6000601f19601f8301169050919050565b6000611c0f82611bad565b611c198185611bb8565b9350611c29818560208601611bc9565b611c3281611bf3565b840191505092915050565b611c4681611aaf565b82525050565b600061010082019050611c62600083018b611b48565b8181036020830152611c74818a611c04565b90508181036040830152611c888189611c04565b9050611c976060830188611c3d565b611ca46080830187611b48565b611cb160a0830186611b48565b611cbe60c0830185611b39565b611ccb60e0830184611b48565b9998505050505050505050565b6000602082019050611ced6000830184611b39565b92915050565b60006060820190508181036000830152611d0d8186611c04565b9050611d1c6020830185611b48565b611d296040830184611b48565b949350505050565b6000602082019050611d466000830184611b48565b92915050565b600081519050919050565b600082825260208201905092915050565b6000819050602082019050919050565b611d8181611a59565b82525050565b6000611d938383611d78565b60208301905092915050565b6000602082019050919050565b6000611db782611d4c565b611dc18185611d57565b9350611dcc83611d68565b8060005b83811015611dfd578151611de48882611d87565b9750611def83611d9f565b925050600181019050611dd0565b5085935050505092915050565b60006020820190508181036000830152611e248184611dac565b905092915050565b600080fd5b600080fd5b7f4e487b7100000000000000000000000000000000000000000000000000000000600052604160045260246000fd5b611e6e82611bf3565b810181811067ffffffffffffffff82111715611e8d57611e8c611e36565b5b80604052505050565b6000611ea0611a45565b9050611eac8282611e65565b919050565b600067ffffffffffffffff821115611ecc57611ecb611e36565b5b611ed582611bf3565b9050602081019050919050565b82818337600083830152505050565b6000611f04611eff84611eb1565b611e96565b905082815260208101848484011115611f2057611f1f611e31565b5b611f2b848285611ee2565b509392505050565b600082601f830112611f4857611f47611e2c565b5b8135611f58848260208601611ef1565b91505092915050565b600067ffffffffffffffff821115611f7c57611f7b611e36565b5b602082029050602081019050919050565b600080fd5b6000611fa5611fa084611f61565b611e96565b90508083825260208201905060208402830185811115611fc857611fc7611f8d565b5b835b8181101561200f57803567ffffffffffffffff811115611fed57611fec611e2c565b5b808601611ffa8982611f33565b85526020850194505050602081019050611fca565b5050509392505050565b600082601f83011261202e5761202d611e2c565b5b813561203e848260208601611f92565b91505092915050565b6000806000806080858703121561206157612060611a4f565b5b600085013567ffffffffffffffff81111561207f5761207e611a54565b5b61208b87828801611f33565b945050602085013567ffffffffffffffff8111156120ac576120ab611a54565b5b6120b887828801611f33565b935050604085013567ffffffffffffffff8111156120d9576120d8611a54565b5b6120e587828801612019565b92505060606120f687828801611a7a565b91505092959194509250565b6000806040838503121561211957612118611a4f565b5b600061212785828601611a7a565b925050602061213885828601611a7a565b9150509250929050565b6000604082019050818103600083015261215c8185611c04565b905061216b6020830184611b48565b9392505050565b600081519050919050565b600082825260208201905092915050565b6000819050602082019050919050565b600082825260208201905092915050565b60006121ba82611bad565b6121c4818561219e565b93506121d4818560208601611bc9565b6121dd81611bf3565b840191505092915050565b60006121f483836121af565b905092915050565b6000602082019050919050565b600061221482612172565b61221e818561217d565b9350836020820285016122308561218e565b8060005b8581101561226c578484038952815161224d85826121e8565b9450612258836121fc565b925060208a01995050600181019050612234565b50829750879550505050505092915050565b600060408201905081810360008301526122988185612209565b905081810360208301526122ac8184611dac565b90509392505050565b7f506f6c6c20646f6573206e6f7420657869737400000000000000000000000000600082015250565b60006122eb601383611bb8565b91506122f6826122b5565b602082019050919050565b6000602082019050818103600083015261231a816122de565b9050919050565b7f4e487b7100000000000000000000000000000000000000000000000000000000600052602260045260246000fd5b6000600282049050600182168061236857607f821691505b60208210810361237b5761237a612321565b5b50919050565b7f4e6f206f7074696f6e7320696e20706f6c6c0000000000000000000000000000600082015250565b60006123b7601283611bb8565b91506123c282612381565b602082019050919050565b600060208201905081810360008301526123e6816123aa565b9050919050565b7f4e487b7100000000000000000000000000000000000000000000000000000000600052603260045260246000fd5b7f4e487b7100000000000000000000000000000000000000000000000000000000600052601160045260246000fd5b600061245682611a59565b91507fffffffffffffffffffffffffffffffffffffffffffffffffffffffffffffffff82036124885761248761241c565b5b600182019050919050565b7f5469746c652063616e6e6f7420626520656d7074790000000000000000000000600082015250565b60006124c9601583611bb8565b91506124d482612493565b602082019050919050565b600060208201905081810360008301526124f8816124bc565b9050919050565b7f4174206c656173742032206f7074696f6e732072657175697265640000000000600082015250565b6000612535601b83611bb8565b9150612540826124ff565b602082019050919050565b6000602082019050818103600083015261256481612528565b9050919050565b7f4d6178696d756d203130206f7074696f6e7320616c6c6f776564000000000000600082015250565b60006125a1601a83611bb8565b91506125ac8261256b565b602082019050919050565b600060208201905081810360008301526125d081612594565b9050919050565b7f4475726174696f6e206d757374206265206174206c656173742031206d696e7560008201527f7465000000000000000000000000000000000000000000000000000000000000602082015250565b6000612633602283611bb8565b915061263e826125d7565b604082019050919050565b6000602082019050818103600083015261266281612626565b9050919050565b7f4475726174696f6e2063616e6e6f742065786365656420333020646179730000600082015250565b600061269f601e83611bb8565b91506126aa82612669565b602082019050919050565b600060208201905081810360008301526126ce81612692565b9050919050565b60006126e082611a59565b91506126eb83611a59565b92508282019050808211156127035761270261241c565b5b92915050565b60008190508160005260206000209050919050565b60006020601f8301049050919050565b600082821b905092915050565b60006008830261276b7fffffffffffffffffffffffffffffffffffffffffffffffffffffffffffffffff8261272e565b612775868361272e565b95508019841693508086168417925050509392505050565b6000819050919050565b60006127b26127ad6127a884611a59565b61278d565b611a59565b9050919050565b6000819050919050565b6127cc83612797565b6127e06127d8826127b9565b84845461273b565b825550505050565b600090565b6127f56127e8565b6128008184846127c3565b505050565b5b81811015612824576128196000826127ed565b600181019050612806565b5050565b601f8211156128695761283a81612709565b6128438461271e565b81016020851015612852578190505b61286661285e8561271e565b830182612805565b50505b505050565b600082821c905092915050565b600061288c6000198460080261286e565b1980831691505092915050565b60006128a5838361287b565b9150826002028217905092915050565b6128be82611bad565b67ffffffffffffffff8111156128d7576128d6611e36565b5b6128e18254612350565b6128ec828285612828565b600060209050601f83116001811461291f576000841561290d578287015190505b6129178582612899565b86555061297f565b601f19841661292d86612709565b60005b8281101561295557848901518255600182019150602085019450602081019050612930565b86831015612972578489015161296e601f89168261287b565b8355505b6001600288020188555050505b505050505050565b7f4f7074696f6e206e616d652063616e6e6f7420626520656d7074790000000000600082015250565b60006129bd601b83611bb8565b91506129c882612987565b602082019050919050565b600060208201905081810360008301526129ec816129b0565b9050919050565b7f506f6c6c206973206e6f74206163746976650000000000000000000000000000600082015250565b6000612a29601283611bb8565b9150612a34826129f3565b602082019050919050565b60006020820190508181036000830152612a5881612a1c565b9050919050565b7f506f6c6c20686173206e6f742073746172746564207965740000000000000000600082015250565b6000612a95601883611bb8565b9150612aa082612a5f565b602082019050919050565b60006020820190508181036000830152612ac481612a88565b9050919050565b7f506f6c6c2068617320656e646564000000000000000000000000000000000000600082015250565b6000612b01600e83611bb8565b9150612b0c82612acb565b602082019050919050565b60006020820190508181036000830152612b3081612af4565b9050919050565b7f596f75206861766520616c726561647920766f74656400000000000000000000600082015250565b6000612b6d601683611bb8565b9150612b7882612b37565b602082019050919050565b60006020820190508181036000830152612b9c81612b60565b9050919050565b7f496e76616c6964206f7074696f6e20696e646578000000000000000000000000600082015250565b6000612bd9601483611bb8565b9150612be482612ba3565b602082019050919050565b60006020820190508181036000830152612c0881612bcc565b9050919050565b7f4f6e6c792063726561746f722063616e20656e642074686520706f6c6c000000600082015250565b6000612c45601d83611bb8565b9150612c5082612c0f565b602082019050919050565b60006020820190508181036000830152612c7481612c38565b9050919050565b7f506f6c6c20697320616c726561647920656e6465640000000000000000000000600082015250565b6000612cb1601583611bb8565b9150612cbc82612c7b565b602082019050919050565b60006020820190508181036000830152612ce081612ca4565b905091905056fea2646970667358221220aea27a56a6e9d27684e539c9c5bbc0185f7458fb343c199e96ea51ed773535f564736f6c63430008130033",
  "linkReferences": {},
  "deployedLinkReferences": {}
}